:100000000C942A000C941D0B0C944A0B0C94770B47
:100010000C9447000C9447000C94E0170C9486173E
:100020000C94B3170C9459170C9433190C940019B1
:100030000C9447000C94C8190C94F5190C94221ACE
:100040000C9447000C9447000C9447000C94470014
:100050000C94470011241FBECFE5D8E0DEBFCDBF12
:1000600011E0A0E6B0E0E4E7F7E502C005900D92EC
:10007000A03BB107D9F711E0A0EBB1E001C01D92A0
:10008000AA3CB107E1F70E94721A0C94B82B0C94A9
:100090000000EF92FF920F931F937B018C0120E0F1
:1000A00030E040E05FE40E94490388238CF0C801FF
:1000B000B70120E030E040E05FE40E94C1010E940F
:1000C000A9039B01AC01205030404040504806C07D
:1000D000C801B7010E94A9039B01AC01B901CA0183
:1000E0001F910F91FF90EF900895A0E0B0E0EBE733
:1000F000F0E00C94502BDC012B01FA019C91923022
:1001000008F439C1EB018881823008F433C194309E
:1001100069F4843009F02FC111969C91119789815F
:10012000981709F428C1A7E7B1E025C1843009F484
:1001300021C18230A9F4923009F01DC19A01AD01AC
:1001400088E0EA010990AE01E90109929E0181501F
:10015000C1F7E201898111969C918923818308C1AD
:10016000923009F407C112962D903C901397EB0141
:100170008A819B811496AD90BD90CD90DC901797AD
:10018000EC80FD800E811F819101281B390BB90184
:1001900037FF04C066277727621B730B6032710537
:1001A0000CF061C0121613066CF537014801062EDB
:1001B00004C096948794779467940A94D2F721E0C8
:1001C00030E040E050E004C0220F331F441F551FB1
:1001D0006A95D2F721503040404050402E213F21B7
:1001E00040235123211531054105510521F021E01E
:1001F00030E040E050E079018A01E628F72808293C
:1002000019293CC0232BD1F1260E371E350146019A
:10021000062E04C096948794779467940A94D2F734
:1002200021E030E040E050E004C0220F331F441FC3
:10023000551F6A95D2F721503040404050402A2146
:100240003B214C215D21211531054105510521F04E
:1002500021E030E040E050E059016A01A628B728CB
:10026000C828D9280BC0821593052CF01C01AA249C
:10027000BB24650103C0EE24FF24870111969C91E5
:10028000D20111968C91981709F445C0992339F041
:10029000A80197012A193B094C095D0906C0A6016E
:1002A00095012E193F09400B510B57FD08C01182D3
:1002B0003382228224833583468357831DC081E0A5
:1002C00081833382228288279927DC01821B930B4A
:1002D000A40BB50B84839583A683B7830DC0220F2F
:1002E000331F441F551F24833583468357838281E0
:1002F000938101979383828324813581468157813D
:10030000DA01C9010197A109B1098F5F9F4FAF4F72
:10031000BF4328F30BC0918333822282EA0CFB1C7B
:100320000C1D1D1DE482F5820683178383E0808304
:10033000248135814681578157FF1AC0C901AA27F8
:1003400097FDA095BA2F81709070A070B0705695EF
:10035000479537952795822B932BA42BB52B848318
:100360009583A683B7838281938101969383828349
:10037000DF0101C0D201CD01CDB7DEB7E2E10C94BF
:100380006C2BA0E2B0E0E7ECF1E00C945C2B69830D
:100390007A838B839C832D833E834F835887E9E048
:1003A000EE2EF12CEC0EFD1ECE010196B7010E943F
:1003B000D2048E010F5E1F4FCE010596B8010E9438
:1003C000D2048A8991E089278A8BC701B801AE01DE
:1003D000475E5F4F0E9475000E94FD03A096E6E015
:1003E0000C94782BA0E2B0E0E8EFF1E00C945C2BE9
:1003F00069837A838B839C832D833E834F835887C5
:10040000F9E0EF2EF12CEC0EFD1ECE010196B701A6
:100410000E94D2048E010F5E1F4FCE010596B801D7
:100420000E94D204C701B801AE01475E5F4F0E942F
:1004300075000E94FD03A096E6E00C94782BA0E2E4
:10044000B0E0E5E2F2E00C94502B69837A838B8371
:100450009C832D833E834F835887CE010196BE0136
:10046000675F7F4F0E94D204CE010596BE016F5E8A
:100470007F4F0E94D2049985923088F0898982301A
:10048000C8F0943019F4823051F404C0843029F457
:10049000923081F487E791E0C6C0923049F420E0C1
:1004A0009A858A89981321E02A87CE010996BBC0D4
:1004B000823049F420E09A858A89981321E02A8BBA
:1004C000CE014196B0C02D843E844F8458886D88FB
:1004D0007E888F88988CEE24FF248701AA24BB2471
:1004E000650140E050E060E070E0E0E0F0E0C10174
:1004F00081709070892BE9F0E60CF71C081D191D1E
:100500009A01AB012A0D3B1D4C1D5D1D80E090E062
:10051000A0E0B0E0E614F7040805190520F481E036
:1005200090E0A0E0B0E0BA01A901480F591F6A1F8E
:100530007B1FAA0CBB1CCC1CDD1C97FE08C081E0F5
:1005400090E0A0E0B0E0A82AB92ACA2ADB2A3196B6
:10055000E032F10549F0660C771C881C991C569412
:10056000479437942794C3CFFA85EA892B893C892D
:100570008B859C85280F391F2E5F3F4F17C0CA01FE
:1005800081709070892B61F016950795F794E79428
:1005900080E090E0A0E0B0E8E82AF92A0A2B1B2BC3
:1005A00076956795579547952F5F3F4F77FDE7CF36
:1005B0000CC0440F551F661F771F17FD4160EE0CDE
:1005C000FF1C001F111F21503040403090E05907A0
:1005D00090E0690790E4790760F32B8F3C8FDB0193
:1005E000CA018F779070A070B07080349105A1051A
:1005F000B10561F447FD0AC0E114F10401051105DC
:1006000029F0405C5F4F6F4F7F4F40781A8EFE1786
:1006100011F081E08A8F4D8F5E8F6F8F78A383E01A
:10062000898FCE0149960E94FD03A096E2E10C94C9
:100630006C2BA8E1B0E0EFE1F3E00C945C2B698354
:100640007A838B839C832D833E834F83588789E0F5
:10065000E82EF12CEC0EFD1ECE010196B7010E9492
:10066000D2048E010F5E1F4FCE010596B8010E9485
:10067000D2048985823040F08989823028F0C70110
:10068000B8010E944A0501C08FEF6896E6E00C941D
:10069000782BA8E1B0E0EFE4F3E00C945C2B6983E5
:1006A0007A838B839C832D833E834F83588789E095
:1006B000E82EF12CEC0EFD1ECE010196B7010E9432
:1006C000D2048E010F5E1F4FCE010596B8010E9425
:1006D000D2048985823040F08989823028F0C701B0
:1006E000B8010E944A0501C08FEF6896E6E00C94BD
:1006F000782BA8E1B0E0EFE7F3E00C945C2B698382
:100700007A838B839C832D833E834F83588789E034
:10071000E82EF12CEC0EFD1ECE010196B7010E94D1
:10072000D2048E010F5E1F4FCE010596B8010E94C4
:10073000D2048985823040F08989823028F0C7014F
:10074000B8010E944A0501C081E06896E6E00C9479
:10075000782BACE0B0E0EFEAF3E00C94602B698317
:100760007A838B839C83CE010196BE016B5F7F4FA2
:100770000E94D2048D81823061F1823050F1843048
:1007800021F48E81882351F12EC02F81388537FDC9
:1007900020C06E812F3131051CF06623F9F023C093
:1007A0008EE190E0821B930B29853A854B855C8511
:1007B00004C056954795379527958A95D2F76623B5
:1007C000B1F050954095309521953F4F4F4F5F4F79
:1007D0000EC020E030E040E050E009C02FEF3FEFD6
:1007E0004FEF5FE704C020E030E040E050E8B9019F
:1007F000CA012C96E2E00C947C2BDF92EF92FF92E0
:100800000F931F93FC01E480F58006811781D1804E
:100810008081823048F480E090E0A0E1B0E0E82AF6
:10082000F92A0A2B1B2BA5C0843009F49FC0823003
:1008300021F4EE24FF24870105C0E114F104010531
:10084000110519F4E0E0F0E096C0628173819FEF3A
:10085000623879070CF05BC022E83FEF261B370BAC
:100860002A3131052CF020E030E040E050E02AC091
:10087000B801A701022E04C0769567955795479554
:100880000A94D2F781E090E0A0E0B0E004C0880FC5
:10089000991FAA1FBB1F2A95D2F70197A109B10979
:1008A0008E219F21A023B1230097A105B10521F03E
:1008B00081E090E0A0E0B0E09A01AB01282B392B59
:1008C0004A2B5B2BDA01C9018F779070A070B07052
:1008D00080349105A105B10539F427FF09C0205CDA
:1008E0003F4F4F4F5F4F04C0215C3F4F4F4F5F4F13
:1008F000E0E0F0E02030A0E03A07A0E04A07A0E402
:100900005A0710F0E1E0F0E079018A0127C0603871
:10091000710564F5FB01E158FF4FD801C7018F77DE
:100920009070A070B07080349105A105B10539F4C4
:10093000E7FE0DC080E490E0A0E0B0E004C08FE3EB
:1009400090E0A0E0B0E0E80EF91E0A1F1B1F17FFA1
:1009500005C016950795F794E794319687E01695AC
:100960000795F794E7948A95D1F705C0EE24FF2404
:100970008701EFEFF0E06E2F679566276795902F60
:100980009F77D794DD24D7948E2F8695492F462BB9
:10099000582F5D29B701CA011F910F91FF90EF9069
:1009A000DF900895FC01DB01408151812281622F9B
:1009B0006F7770E0221F2227221F9381892F880FD3
:1009C000822B282F30E0991F9927991F11969C930D
:1009D000119721153105A9F54115510561057105DD
:1009E00011F482E037C082E89FEF13969C938E93B8
:1009F00012979A01AB0167E0220F331F441F551F66
:100A00006A95D1F783E08C930DC0220F331F441FEA
:100A1000551F12968D919C911397019713969C9355
:100A20008E931297203080E0380780E0480780E4FA
:100A3000580758F314962D933D934D935C93179755
:100A400008952F3F310579F4411551056105710570
:100A500019F484E08C93089564FF03C081E08C93C3
:100A600012C01C9210C02F57304013963C932E9307
:100A7000129783E08C9387E0440F551F661F771F02
:100A80008A95D1F7706414964D935D936D937C9322
:100A9000179708951F93DC01FB019C91923008F495
:100AA00047C08081823008F443C0943051F41196DD
:100AB0001C91843099F58181682F70E0611B710968
:100AC0003FC0843021F0923031F48230B9F181811D
:100AD000882389F12DC011961C9111978230F1F075
:100AE00081811817D9F412962D913C911397828128
:100AF00093818217930794F028173907BCF0149656
:100B00008D919D910D90BC91A02D248135814681C0
:100B10005781281739074A075B0718F4112341F05A
:100B20000AC082179307A407B50740F4112319F0F0
:100B300061E070E005C06FEF7FEF02C060E070E041
:100B4000CB011F910895DF93CF93CDB7DEB7A7E216
:100B5000B0E0E7E2F0E080818F778C93A7E2B0E02D
:100B6000E7E2F0E0808180648C93A7E2B0E0E7E206
:100B7000F0E080818F7D8C93A6E2B0E0E6E2F0E0C9
:100B8000808181608C93A6E2B0E0E6E2F0E08081B3
:100B900082608C93A6E2B0E0E6E2F0E080818460BF
:100BA0008C93A6E2B0E0E6E2F0E0808180688C936E
:100BB000CF91DF910895DF93CF930F92CDB7DEB73A
:100BC0008983A7E2B0E0E7E2F0E08081982F907E91
:100BD0008981892B8C93A6E2B0E0E6E2F0E0808187
:100BE00080648C93E6E2F0E08081882F90E0807151
:100BF00090709595879595958795959587959595F9
:100C00008795009779F3A6E2B0E0E6E2F0E0808114
:100C100088608C93E4E2F0E0808191810F90CF9125
:100C2000DF910895DF93CF93CDB7DEB784E064E022
:100C300040E00E945C0683E067E041E00E945C06C1
:100C4000CF91DF910895DF93CF93CDB7DEB784E0E6
:100C500064E040E00E945C0684E063E041E00E94C2
:100C60005C06CF91DF910895DF93CF93CDB7DEB7C8
:100C700084E064E040E00E945C0683E067E040E0DE
:100C80000E945C06CF91DF910895DF93CF93CDB79B
:100C9000DEB7EAE3F0E08FEF8083E7E3F0E080EF98
:100CA0008083E4E3F0E08FEF8083E1E3F0E08EEF18
:100CB0008083CF91DF910895DF93CF9300D000D050
:100CC0000F92CDB7DEB789836A834B838981282F42
:100CD00030E03D832C838C819D818230910509F425
:100CE00044C02C813D812330310534F48C819D81B9
:100CF0008130910571F0BCC02C813D8123303105DC
:100D000009F45FC08C819D818430910509F485C010
:100D1000AFC08B818130A1F4ABE3B0E0EBE3F0E056
:100D20008081482F8A81282F30E081E090E0022ED8
:100D300002C0880F991F0A94E2F7842B8C9398C005
:100D4000ABE3B0E0EBE3F0E08081482F8A81282F0D
:100D500030E081E090E0022E02C0880F991F0A94D3
:100D6000E2F7809584238C9383C08B818130A1F43A
:100D7000A8E3B0E0E8E3F0E08081482F8A81282FE3
:100D800030E081E090E0022E02C0880F991F0A94A3
:100D9000E2F7842B8C936CC0A8E3B0E0E8E3F0E0CA
:100DA0008081482F8A81282F30E081E090E0022E58
:100DB00002C0880F991F0A94E2F7809584238C93D0
:100DC00057C08B818130A1F4A5E3B0E0E5E3F0E00A
:100DD0008081482F8A81282F30E081E090E0022E28
:100DE00002C0880F991F0A94E2F7842B8C9340C0AD
:100DF000A5E3B0E0E5E3F0E08081482F8A81282F69
:100E000030E081E090E0022E02C0880F991F0A9422
:100E1000E2F7809584238C932BC08B818130A1F4E1
:100E2000A2E3B0E0E2E3F0E08081482F8A81282F3E
:100E300030E081E090E0022E02C0880F991F0A94F2
:100E4000E2F7842B8C9314C0A2E3B0E0E2E3F0E07D
:100E50008081482F8A81282F30E081E090E0022EA7
:100E600002C0880F991F0A94E2F7809584238C931F
:100E70000F900F900F900F900F90CF91DF910895EA
:100E8000DF93CF9300D000D00F92CDB7DEB78A8327
:100E90006B838A81282F30E03D832C834C815D81D8
:100EA00042305105B1F18C819D818330910534F43C
:100EB0002C813D812130310571F084C04C815D81F0
:100EC0004330510509F443C08C819D8184309105E4
:100ED00009F45BC077C0E9E3F0E08081482F50E07F
:100EE0008B81282F30E081E090E002C0880F991FAD
:100EF0002A95E2F79A01282339238B81882F90E0E5
:100F0000A90102C0559547958A95E2F7CA018983E0
:100F100059C0E6E3F0E08081482F50E08B81282F14
:100F200030E081E090E002C0880F991F2A95E2F737
:100F30009A01282339238B81882F90E0A90102C0D0
:100F4000559547958A95E2F7CA0189833BC0E3E34B
:100F5000F0E08081482F50E08B81282F30E081E045
:100F600090E002C0880F991F2A95E2F79A01282382
:100F700039238B81882F90E0A90102C055954795B0
:100F80008A95E2F7CA0189831DC0E0E3F0E0808121
:100F9000482F50E08B81282F30E081E090E002C0A4
:100FA000880F991F2A95E2F79A01282339238B810C
:100FB000882F90E0A90102C0559547958A95E2F7E0
:100FC000CA01898389810F900F900F900F900F9025
:100FD000CF91DF910895DF93CF9300D000D0CDB7AC
:100FE000DEB789836A838981282F30E03C832B8395
:100FF0008B819C818230910551F12B813C81233082
:10100000310534F48B819C818130910561F05AC0A7
:101010002B813C812330310571F18B819C8184309F
:101020009105E9F14FC0ABE3B0E0EBE3F0E0808184
:10103000482F8A81282F30E081E090E0022E02C004
:10104000880F991F0A94E2F784278C933BC0A8E38A
:10105000B0E0E8E3F0E08081482F8A81282F30E07B
:1010600081E090E0022E02C0880F991F0A94E2F7F7
:1010700084278C9327C0A5E3B0E0E5E3F0E080810E
:10108000482F8A81282F30E081E090E0022E02C0B4
:10109000880F991F0A94E2F784278C9313C0A2E368
:1010A000B0E0E2E3F0E08081482F8A81282F30E031
:1010B00081E090E0022E02C0880F991F0A94E2F7A7
:1010C00084278C930F900F900F900F90CF91DF910A
:1010D0000895DF93CF9300D000D0CDB7DEB78983DA
:1010E0006A838981282F30E03C832B838B819C810C
:1010F00082309105D9F02B813C812330310534F4C5
:101100008B819C818130910561F01EC02B813C81D7
:101110002330310581F08B819C818430910581F0F1
:1011200013C0EBE3F0E08A8180830EC0E8E3F0E0D7
:101130008A81808309C0E5E3F0E08A81808304C06E
:10114000E2E3F0E08A8180830F900F900F900F9080
:10115000CF91DF910895DF93CF9300D000D000D0DE
:10116000CDB7DEB78A836B834C838A81282F30E02A
:101170003E832D834D815E8142305105B1F18D81D9
:101180009E818330910534F42D813E8121303105DB
:1011900071F084C04D815E814330510509F443C034
:1011A0008D819E818430910509F45BC077C0EAE3AC
:1011B000F0E08081482F50E08B81282F30E081E0E3
:1011C00090E002C0880F991F2A95E2F79A01282320
:1011D00039238B81882F90E0A90102C0559547954E
:1011E0008A95E2F7CA01898359C0E7E3F0E080817C
:1011F000482F50E08B81282F30E081E090E002C042
:10120000880F991F2A95E2F79A01282339238B81A9
:10121000882F90E0A90102C0559547958A95E2F77D
:10122000CA0189833BC0E4E3F0E08081482F50E0AD
:101230008B81282F30E081E090E002C0880F991F59
:101240002A95E2F79A01282339238B81882F90E091
:10125000A90102C0559547958A95E2F7CA0189838D
:101260001DC0E1E3F0E08081482F50E08B81282F02
:1012700030E081E090E002C0880F991F2A95E2F7E4
:101280009A01282339238B81882F90E0A90102C07D
:10129000559547958A95E2F7CA0189838981882304
:1012A00029F48A816B814C810E945C0626960FB6D8
:1012B000F894DEBF0FBECDBFCF91DF910895DF93CD
:1012C000CF9300D00F92CDB7DEB789837B836A833B
:1012D0000E94E31380EA0E94511489810E94DA146B
:1012E0000E941A1480EA0E9495148A819B810E94B0
:1012F00010150E944B150F900F900F90CF91DF911A
:101300000895DF93CF93CDB7DEB760970FB6F8940B
:10131000DEBF0FBECDBF8F87688B0E94E31380EACC
:101320000E9451148F850E94DA1488890E94DA1471
:101330000E944B1580E090E0A0E2B1E48B879C878F
:10134000AD87BE876B857C858D859E8520E030E0EE
:101350004AEF54E40E941F02DC01CB018F8398877F
:10136000A987BA876F81788589859A8520E030E0E2
:1013700040E85FE30E94790388232CF481E090E049
:101380009E838D833FC06F81788589859A8520E013
:101390003FEF4FE757E40E94190318164CF56B8591
:1013A0007C858D859E8520E030E040E251E40E94FE
:1013B0001F02DC01CB01BC01CD010E944900DC0110
:1013C000CB019E838D830FC088EC90E09C838B8340
:1013D0008B819C810197F1F79C838B838D819E810A
:1013E00001979E838D838D819E81009769F714C03C
:1013F0006F81788589859A850E944900DC01CB013F
:101400009E838D838D819E819A83898389819A8130
:101410000197F1F79A83898360960FB6F894DEBF3F
:101420000FBECDBFCF91DF910895DF93CF93CDB79E
:10143000DEB763970FB6F894DEBF0FBECDBF888BC3
:101440007A8B698B4B8B0E94E31380EA0E945114C4
:1014500088890E94DA141F8680C08F85282F30E08B
:1014600089899A89FC01E20FF31F80810E94DA14B6
:1014700080E090E0A0E2B1E48B879C87AD87BE87D7
:101480006B857C858D859E8520E030E04AEF54E4B5
:101490000E941F02DC01CB018F839887A987BA873E
:1014A0006F81788589859A8520E030E040E85FE3A8
:1014B0000E94790388232CF481E090E09E838D8341
:1014C0003FC06F81788589859A8520E03FEF4FE79F
:1014D00057E40E94190318164CF56B857C858D85A1
:1014E0009E8520E030E040E251E40E941F02DC01D2
:1014F000CB01BC01CD010E944900DC01CB019E83E0
:101500008D830FC088EC90E09C838B838B819C81C2
:101510000197F1F79C838B838D819E8101979E8338
:101520008D838D819E81009769F714C06F817885C6
:1015300089859A850E944900DC01CB019E838D83B9
:101540008D819E819A83898389819A810197F1F7A0
:101550009A8389838F858F5F8F879F858B89981763
:1015600008F47BCF0E944B1563960FB6F894DEBF4C
:101570000FBECDBFCF91DF910895DF93CF93CDB74D
:10158000DEB7A5E5B0E0E5E5F0E0808181608C9311
:10159000A5E5B0E0E5E5F0E080818D7F8C93A5E5E1
:1015A000B0E0E5E5F0E0808184608C93A5E5B0E0F3
:1015B000E5E5F0E08081877F8C93A4E5B0E0E4E589
:1015C000F0E080818F7B8C93CF91DF910895DF9342
:1015D000CF9300D0CDB7DEB79A83898389819A8172
:1015E0009093B1018093B0010F900F90CF91DF9154
:1015F0000895DF93CF9300D0CDB7DEB79A83898368
:1016000089819A819093B3018093B2010F900F90DA
:10161000CF91DF910895DF93CF9300D0CDB7DEB7A0
:101620009A83898389819A819093B5018093B401CB
:101630000F900F90CF91DF9108951F920F920FB6E8
:101640000F9211242F933F934F935F936F937F9348
:101650008F939F93AF93BF93EF93FF93DF93CF93BA
:10166000CDB7DEB7E091B001F091B1010995CF910E
:10167000DF91FF91EF91BF91AF919F918F917F91FA
:101680006F915F914F913F912F910F900FBE0F90EF
:101690001F9018951F920F920FB60F9211242F933F
:1016A0003F934F935F936F937F938F939F93AF93EA
:1016B000BF93EF93FF93DF93CF93CDB7DEB7E09166
:1016C000B201F091B3010995CF91DF91FF91EF91B4
:1016D000BF91AF919F918F917F916F915F914F914A
:1016E0003F912F910F900FBE0F901F9018951F9252
:1016F0000F920FB60F9211242F933F934F935F9346
:101700006F937F938F939F93AF93BF93EF93FF93C9
:10171000DF93CF93CDB7DEB7E091B401F091B5017F
:101720000995CF91DF91FF91EF91BF91AF919F917B
:101730008F917F916F915F914F913F912F910F907A
:101740000FBE0F901F901895DF93CF9300D00F928C
:10175000CDB7DEB789838981282F30E03B832A8388
:101760008A819B818130910589F02A813B812230D9
:101770003105A1F08A819B810097B9F4ABE5B0E017
:10178000EBE5F0E0808180648C930FC0ABE5B0E0C6
:10179000EBE5F0E0808180688C9307C0ABE5B0E0BA
:1017A000EBE5F0E0808180628C930F900F900F90BA
:1017B000CF91DF910895DF93CF9300D000D0CDB7C4
:1017C000DEB789836A838981282F30E03C832B83AD
:1017D0008B819C8181309105E9F02B813C81223005
:1017E000310561F18B819C810097D9F5AAE5B0E0C4
:1017F000EAE5F0E08081482F8A81282F30E081E0FF
:1018000090E0022E02C0880F991F0A94E2F7842B01
:101810008C9327C0AAE5B0E0EAE5F0E08081482F8C
:101820008A81282F30E081E090E0022E02C0880FEC
:10183000991F0A94E2F7842B8C9313C0AAE5B0E0B9
:10184000EAE5F0E08081482F8A81282F30E081E0AE
:1018500090E0022E02C0880F991F0A94E2F7842BB1
:101860008C930F900F900F900F90CF91DF91089570
:10187000DF93CF93CDB7DEB7AFE5B0E0EFE5F0E0B3
:10188000808180688C93CF91DF910895DF93CF930F
:10189000CDB7DEB7AFE5B0E0EFE5F0E080818F7760
:1018A0008C93CF91DF910895DF93CF930F92CDB7B3
:1018B000DEB7198208C082E0698141E00E945C06BF
:1018C00089818F5F898389818430A8F384E089834B
:1018D00008C082E0698141E00E945C0689818F5FD7
:1018E000898389818830A8F30F90CF91DF91089583
:1018F000DF93CF93CDB7DEB764970FB6F894DEBF12
:101900000FBECDBF8FEF8C8B1F861B8ABAC084E0C1
:10191000898B08C082E0698941E00E945C06898960
:101920008F5F898B89898830A8F38B89982F9C5F7A
:1019300082E0692F40E00E945C061A8A98C08A897A
:10194000282F30E082E090E0B9010E944007888BA8
:1019500080E090E0A0EAB1E48B879C87AD87BE87EA
:101960006B857C858D859E8520E030E04AEF54E4D0
:101970000E941F02DC01CB018F839887A987BA8759
:101980006F81788589859A8520E030E040E85FE3C3
:101990000E94790388232CF481E090E09E838D835C
:1019A0003FC06F81788589859A8520E03FEF4FE7BA
:1019B00057E40E94190318164CF56B857C858D85BC
:1019C0009E8520E030E040E251E40E941F02DC01ED
:1019D000CB01BC01CD010E944900DC01CB019E83FB
:1019E0008D830FC088EC90E09C838B838B819C81DE
:1019F0000197F1F79C838B838D819E8101979E8354
:101A00008D838D819E81009769F714C06F817885E1
:101A100089859A850E944900DC01CB019E838D83D4
:101A20008D819E819A83898389819A810197F1F7BB
:101A30009A83898388898823B9F48A89482F50E05A
:101A40008B89282F30E0CA01880F991F880F991FB2
:101A5000820F931FFC01E158FE4F80818C8B81E047
:101A60008F878F85813039F08A898F5F8A8B8A8949
:101A7000843008F464CF8F85813039F08B898F5F93
:101A80008B8B8B89843008F442CF8C8964960FB697
:101A9000F894DEBF0FBECDBFCF91DF9108950F93B5
:101AA0001F93DF93CF93CDB7DEB7C455D0400FB6A9
:101AB000F894DEBF0FBECDBF83E066E040E00E9439
:101AC0005C06FE01EF5AFF4F80E090E0A0EFB1E42A
:101AD00080839183A283B3838E01035B1F4FFE013A
:101AE000EF5AFF4F608171818281938120E030E065
:101AF0004AEF54E40E941F02DC01CB01F80180830D
:101B00009183A283B383FE01E35BFF4F6081718108
:101B10008281938120E030E040E85FE30E94790316
:101B2000882344F4FE01E55BFF4F81E090E0918360
:101B3000808364C0FE01E35BFF4F6081718182811D
:101B4000938120E03FEF4FE757E40E9419031816F6
:101B50000CF043C0FE01EF5AFF4F6081718182811A
:101B6000938120E030E040E251E40E941F02DC015A
:101B7000CB018E01055B1F4FBC01CD010E944900C6
:101B8000DC01CB01F801918380831FC0FE01E75B7C
:101B9000FF4F88EC90E091838083FE01E75BFF4F6D
:101BA000808191810197F1F7FE01E75BFF4F9183FF
:101BB0008083DE01A55BBF4FFE01E55BFF4F8081A7
:101BC0009181019711969C938E93FE01E55BFF4FE7
:101BD000808191810097D1F627C08E01055B1F4F50
:101BE000FE01E35BFF4F60817181828193810E94DE
:101BF0004900DC01CB01F80191838083DE01A95B00
:101C0000BF4FFE01E55BFF4F808191818D939C93D7
:101C1000FE01E95BFF4F808191810197F1F7FE01A1
:101C2000E95BFF4F9183808382E00E947C10FE017C
:101C3000ED5BFF4F80E090E0A0EAB0E48083918309
:101C4000A283B3838E01015C1F4FFE01ED5BFF4F4A
:101C5000608171818281938120E030E04AEF54E419
:101C60000E941F02DC01CB01F80180839183A283D3
:101C7000B383FE01FF96608171818281938120E0B0
:101C800030E040E85FE30E94790388232CF481E090
:101C900090E09EAF8DAF46C0FE01FF9660817181DE
:101CA0008281938120E03FEF4FE757E40E941903C0
:101CB000181664F5FE01ED5BFF4F60817181828132
:101CC000938120E030E040E251E40E941F02DC01F9
:101CD000CB01BC01CD010E944900DC01CB019EAFCC
:101CE0008DAF0FC088EC90E09CAF8BAF8BAD9CADFF
:101CF0000197F1F79CAF8BAF8DAD9EAD01979EAF75
:101D00008DAF8DAD9EAD009769F716C0FE01FF96B1
:101D100060817181828193810E944900DC01CB0145
:101D20009EAF8DAF8DAD9EAD9AAF89AF89AD9AADA7
:101D30000197F1F79AAF89AF88E30E947C1080E0A9
:101D400090E0A0EAB0E48DAB9EABAFABB8AF6DA9AD
:101D50007EA98FA998AD20E030E04AEF54E40E94BC
:101D60001F02DC01CB0189AB9AABABABBCAB69A961
:101D70007AA98BA99CA920E030E040E85FE30E94AB
:101D8000790388232CF481E090E098AB8FA73FC0C3
:101D900069A97AA98BA99CA920E03FEF4FE757E4F6
:101DA0000E94190318164CF56DA97EA98FA998AD4C
:101DB00020E030E040E251E40E941F02DC01CB0150
:101DC000BC01CD010E944900DC01CB0198AB8FA77B
:101DD0000FC088EC90E09EA78DA78DA59EA50197CA
:101DE000F1F79EA78DA78FA598A9019798AB8FA70C
:101DF0008FA598A9009769F714C069A97AA98BA93A
:101E00009CA90E944900DC01CB0198AB8FA78FA54C
:101E100098A99CA78BA78BA59CA50197F1F79CA7D8
:101E20008BA78FE00E947C1080E090E0A0EAB0E4F5
:101E30008FA398A7A9A7BAA76FA178A589A59AA5E6
:101E400020E030E04AEF54E40E941F02DC01CB01A5
:101E50008BA39CA3ADA3BEA36BA17CA18DA19EA1CE
:101E600020E030E040E85FE30E94790388232CF40F
:101E700081E090E09AA389A33FC06BA17CA18DA1D2
:101E80009EA120E03FEF4FE757E40E941903181688
:101E90004CF56FA178A589A59AA520E030E040E235
:101EA00051E40E941F02DC01CB01BC01CD010E9464
:101EB0004900DC01CB019AA389A30FC088EC90E014
:101EC00098A38F8F8F8D98A10197F1F798A38F8F8B
:101ED00089A19AA101979AA389A389A19AA10097A0
:101EE00069F714C06BA17CA18DA19EA10E9449003D
:101EF000DC01CB019AA389A389A19AA19E8F8D8F22
:101F00008D8D9E8D0197F1F79E8F8D8F81E00E94C0
:101F10007C1080E090E0A0EAB0E4898F9A8FAB8FCC
:101F2000BC8F698D7A8D8B8D9C8D20E030E04AEFDF
:101F300054E40E941F02DC01CB018D8B9E8BAF8B82
:101F4000B88F6D897E898F89988D20E030E040E8D8
:101F50005FE30E94790388232CF481E090E09C8B5E
:101F60008B8B3FC06D897E898F89988D20E03FEFF4
:101F70004FE757E40E94190318164CF5698D7A8DC6
:101F80008B8D9C8D20E030E040E251E40E941F02E6
:101F9000DC01CB01BC01CD010E944900DC01CB0179
:101FA0009C8B8B8B0FC088EC90E09A8B898B8989F6
:101FB0009A890197F1F79A8B898B8B899C89019774
:101FC0009C8B8B8B8B899C89009769F714C06D89DA
:101FD0007E898F89988D0E944900DC01CB019C8B02
:101FE0008B8B8B899C89988B8F878F85988901979C
:101FF000F1F7988B8F8786E00E947C1080E090E05C
:10200000A0EAB0E48B879C87AD87BE876B857C8513
:102010008D859E8520E030E04AEF54E40E941F0247
:10202000DC01CB018F839887A987BA876F81788578
:1020300089859A8520E030E040E85FE30E947903DB
:1020400088232CF481E090E09E838D833FC06F81D4
:10205000788589859A8520E03FEF4FE757E40E9415
:10206000190318164CF56B857C858D859E8520E0BF
:1020700030E040E251E40E941F02DC01CB01BC01D0
:10208000CD010E944900DC01CB019E838D830FC0EE
:1020900088EC90E09C838B838B819C810197F1F786
:1020A0009C838B838D819E8101979E838D838D81FF
:1020B0009E81009769F714C06F81788589859A851C
:1020C0000E944900DC01CB019E838D838D819E811E
:1020D0009A83898389819A810197F1F79A83898309
:1020E000CC5ADF4F0FB6F894DEBF0FBECDBFCF91F5
:1020F000DF911F910F910895DF93CF93CDB7DEB796
:102100002F970FB6F894DEBF0FBECDBF8F8783E049
:1021100064E040E00E945C0683E065E040E00E94ED
:102120005C0683E066E040E00E945C0681E06F852B
:102130000E94690883E066E041E00E945C0680E05E
:1021400090E0A0EAB0E48B879C87AD87BE876B8563
:102150007C858D859E8520E030E04AEF54E40E9426
:102160001F02DC01CB018F839887A987BA876F8113
:10217000788589859A8520E030E040E85FE30E9419
:10218000790388232CF481E090E09E838D833FC007
:102190006F81788589859A8520E03FEF4FE757E486
:1021A0000E94190318164CF56B857C858D859E85DC
:1021B00020E030E040E251E40E941F02DC01CB014C
:1021C000BC01CD010E944900DC01CB019E838D83BF
:1021D0000FC088EC90E09C838B838B819C8101975E
:1021E000F1F79C838B838D819E8101979E838D83E4
:1021F0008D819E81009769F714C06F8178858985EC
:102200009A850E944900DC01CB019E838D838D81DC
:102210009E819A83898389819A810197F1F79A83B4
:10222000898383E066E040E00E945C062F960FB64B
:10223000F894DEBF0FBECDBFCF91DF910895DF933D
:10224000CF93CDB7DEB72F970FB6F894DEBF0FBE92
:10225000CDBF8F8783E064E041E00E945C0683E0AD
:1022600065E040E00E945C0683E066E040E00E949A
:102270005C0681E06F850E94690883E066E041E0CA
:102280000E945C0680E090E0A0EAB0E48B879C8727
:10229000AD87BE876B857C858D859E8520E030E08F
:1022A0004AEF54E40E941F02DC01CB018F83988720
:1022B000A987BA876F81788589859A8520E030E083
:1022C00040E85FE30E94790388232CF481E090E0EA
:1022D0009E838D833FC06F81788589859A8520E0B4
:1022E0003FEF4FE757E40E94190318164CF56B8532
:1022F0007C858D859E8520E030E040E251E40E949F
:102300001F02DC01CB01BC01CD010E944900DC01B0
:10231000CB019E838D830FC088EC90E09C838B83E0
:102320008B819C810197F1F79C838B838D819E81AA
:1023300001979E838D838D819E81009769F714C0DC
:102340006F81788589859A850E944900DC01CB01DF
:102350009E838D838D819E819A83898389819A81D1
:102360000197F1F79A83898383E066E040E00E9459
:102370005C062F960FB6F894DEBF0FBECDBFCF918F
:10238000DF910895DF93CF9300D0CDB7DEB79A8366
:1023900089830AC0E981FA8180810E941F118981A5
:1023A0009A8101969A838983E981FA8180818823C1
:1023B00089F70F900F90CF91DF910895DF93CF931E
:1023C00000D000D0CDB7DEB79C838B831A821982F0
:1023D0002CC089819A8101969A838983EB81FC8143
:1023E00020818B819C8101969C838B83822F0E940C
:1023F0001F1189819A818031910521F481E061E08A
:102400000E94211289819A818032910529F0898167
:102410009A818132910549F481E00E947C1080E02C
:1024200061E00E9421121A821982EB81FC81808175
:10243000882379F60F900F900F900F90CF91DF9136
:102440000895DF93CF9300D000D0CDB7DEB7898356
:102450006A8389818031C8F48A81282F30E03C83E7
:102460002B838B819C818130910531F02B813C81C4
:102470002230310531F009C0898180580E947C10DA
:1024800004C0898180540E947C100F900F900F909F
:102490000F90CF91DF910895DF93CF9300D000D0BC
:1024A000CDB7DEB78A837C836B838A81882F90E0E7
:1024B0000896880F991F880F991F880F991F0E94EF
:1024C0007C1019820EC08981282F30E08B819C817D
:1024D000FC01E20FF31F80810E941F1189818F5F31
:1024E00089838981883078F380E061E00E9421123D
:1024F0000F900F900F900F90CF91DF910895DF9381
:10250000CF93CDB7DEB764970FB6F894DEBF0FBE9A
:10251000CDBF9D878C877F876E87598B488B1B86A5
:102520001A86198618868C859D850097B1F42A85B0
:102530003B858E859F85FC01E20FF31F80E380833E
:102540008A859B8501969B878A872A853B858E8510
:102550009F85FC01E20FF31F10828C859D859923D6
:102560000CF045C0888999898A30910509F03FC0EF
:1025700081E090E0998788878C859D8590958195ED
:102580009F4F9D878C8733C08C859D85288939898D
:10259000B9010E94292B9B838A832A853B858E85DE
:1025A0009F85AC01420F531F5C8B4B8B8A819B81B3
:1025B0008A3091052CF08A81582F595C5A8B04C0BF
:1025C0008A81982F905D9A8B4A89EB89FC89408398
:1025D0008A859B8501969B878A878C859D8528891E
:1025E0003989B9010E94292BCB019D878C878C8565
:1025F0009D85009749F688859985009799F0888987
:1026000099898A30910571F42A853B858E859F854D
:10261000FC01E20FF31F8DE280838A859B85019682
:102620009B878A872A853B858E859F85FC01E20FE3
:10263000F31F10821F821E828A859B8501979D83CE
:102640008C832CC02E813F818E859F85FC01E20FFB
:10265000F31F808189832E813F818E859F85DC01D8
:10266000A20FB31F2C813D818E859F85FC01E20F57
:10267000F31F80818C932C813D818E859F85FC0189
:10268000E20FF31F898180838E819F8101969F8352
:102690008E838C819D8101979D838C832E813F81C8
:1026A0008C819D81281739076CF264960FB6F894D7
:1026B000DEBF0FBECDBFCF91DF910895DF93CF93E3
:1026C000CDB7DEB72D970FB6F894DEBF0FBECDBFE6
:1026D0008D878D85882F90E09E012F5F3F4FB90138
:1026E0004AE050E00E94872BCE0101960E94C21161
:1026F0002D960FB6F894DEBF0FBECDBFCF91DF9100
:102700000895DF93CF93CDB7DEB760970FB6F894F7
:10271000DEBF0FBECDBF6D877E878F87988B8D857F
:102720009E859E012F5F3F4FB9014AE050E00E9415
:102730007F12CE0101960E94C21160960FB6F894E6
:10274000DEBF0FBECDBFCF91DF910895DF93CF9352
:10275000CDB7DEB7E0E2F0E082E08083A1E2B0E056
:10276000E1E2F0E080818E7F8C93A1E2B0E0E1E2D3
:10277000F0E080818D7F8C93E2E2F0E084E680835C
:10278000A6E5B0E0E6E5F0E0808184608C93CF912F
:10279000DF910895DF93CF93CDB7DEB7A6E5B0E024
:1027A000E6E5F0E0808180648C93E2E2F0E088E28C
:1027B0008083A6E5B0E0E6E5F0E0808184608C935C
:1027C000CF91DF910895DF93CF930F92CDB7DEB70E
:1027D0001982A6E5B0E0E6E5F0E0808180628C93A6
:1027E000A6E5B0E0E6E5F0E0808180688C93A6E5A0
:1027F000B0E0E6E5F0E0808184608C93E6E5F0E00F
:102800008081881F8827881F882F90E0907000970C
:10281000A9F3E1E2F0E08081882F90E0887F90705A
:102820008830910511F081E0898389810F90CF91E3
:10283000DF910895DF93CF930F92CDB7DEB7198262
:10284000A6E5B0E0E6E5F0E0808180628C93A6E545
:10285000B0E0E6E5F0E0808180688C93A6E5B0E02A
:10286000E6E5F0E0808184608C93E6E5F0E080812D
:10287000881F8827881F882F90E090700097A9F301
:10288000E1E2F0E08081882F90E0887F90708031D5
:10289000910511F082E0898389810F90CF91DF91BA
:1028A0000895DF93CF9300D0CDB7DEB78A83198226
:1028B000E3E2F0E08A818083A6E5B0E0E6E5F0E0BF
:1028C00080818F7D8C93A3E2B0E0E3E2F0E0808131
:1028D0008E7F8C93A6E5B0E0E6E5F0E0808180682D
:1028E0008C93A6E5B0E0E6E5F0E0808184608C930F
:1028F000E6E5F0E08081881F8827881F882F90E018
:1029000090700097A9F3E1E2F0E08081882F90E0D9
:10291000887F90708032910511F483E089838981EA
:102920000F900F90CF91DF910895DF93CF9300D058
:10293000CDB7DEB78A831982E3E2F0E08A81816055
:102940008083A6E5B0E0E6E5F0E080818F7D8C93A2
:10295000A3E2B0E0E3E2F0E0808181608C93A6E541
:10296000B0E0E6E5F0E0808180688C93A6E5B0E019
:10297000E6E5F0E0808184608C93E6E5F0E080811C
:10298000881F8827881F882F90E090700097A9F3F0
:10299000E1E2F0E08081882F90E0887F90708833BA
:1029A000910511F484E0898389810F900F90CF9174
:1029B000DF910895DF93CF9300D0CDB7DEB78A8340
:1029C0001982E3E2F0E08A818083A6E5B0E0E6E5E3
:1029D000F0E0808180688C93A6E5B0E0E6E5F0E069
:1029E000808184608C93E6E5F0E08081881F8827F1
:1029F000881F882F90E090700097A9F3E1E2F0E043
:102A00008081882F90E0887F90708033910511F449
:102A100085E0898389810F900F90CF91DF91089590
:102A2000DF93CF9300D00F92CDB7DEB79B838A831D
:102A30001982A6E5B0E0E6E5F0E0808184608C9341
:102A4000A6E5B0E0E6E5F0E0808180688C93E6E5FD
:102A5000F0E08081881F8827881F882F90E0907081
:102A60000097A9F3E1E2F0E08081882F90E0887F71
:102A700090708835910511F486E08983E3E2F0E0F7
:102A80008081EA81FB81808389810F900F900F9074
:102A9000CF91DF910895DF93CF93CDB7DEB7A6E551
:102AA000B0E0E6E5F0E0808180618C93A6E5B0E0DF
:102AB000E6E5F0E0808180688C93A6E5B0E0E6E58D
:102AC000F0E0808184608C93CF91DF910895DF9353
:102AD000CF93CDB7DEB7AFE4B0E0EFE4F0E08081B4
:102AE0008E7F8C93AFE4B0E0EFE4F0E08081826011
:102AF0008C93AEE4B0E0EEE4F0E0808188608C93EB
:102B0000AEE4B0E0EEE4F0E0808180618C93AFE46D
:102B1000B0E0EFE4F0E080818F7B8C93AFE4B0E035
:102B2000EFE4F0E0808180688C93AFE4B0E0EFE404
:102B3000F0E080818F7E8C93AFE4B0E0EFE4F0E0D2
:102B4000808180628C93AEE4B0E0EEE4F0E08081BE
:102B5000887F8C93A9E5B0E0E9E5F0E080818B7F88
:102B60008C93A9E5B0E0E9E5F0E08081877F8C9364
:102B7000A9E5B0E0E9E5F0E080818F7E8C93A9E5DE
:102B8000B0E0E9E5F0E080818F7D8C93A8E5B0E0CE
:102B9000E8E5F0E0808184608C93A8E5B0E0E8E5AA
:102BA000F0E0808188608C93A8E5B0E0E8E5F0E093
:102BB000808180618C93A8E5B0E0E8E5F0E0808159
:102BC00080628C93EAE4F0E01082EBE4F0E01082A3
:102BD000E8E4F0E01082E9E4F0E01082ECE4F0E0F8
:102BE0001082EDE4F0E01082E6E4F0E01082E7E429
:102BF000F0E01082CF91DF910895DF93CF930F9291
:102C0000CDB7DEB78983AEE4B0E0EEE4F0E08081DA
:102C1000887F8C93AEE4B0E0EEE4F0E08081982F02
:102C200089818770892B8C930F90CF91DF910895C4
:102C3000DF93CF93CDB7DEB7AEE4B0E0EEE4F0E0E3
:102C40008081887F8C93CF91DF910895DF93CF931C
:102C5000CDB7DEB7A9E5B0E0E9E5F0E080818460BA
:102C60008C93CF91DF910895DF93CF93CDB7DEB7EB
:102C7000A9E5B0E0E9E5F0E080818B7F8C93CF910E
:102C8000DF910895DF93CF93CDB7DEB7A9E5B0E02C
:102C9000E9E5F0E0808180618C93CF91DF91089528
:102CA000DF93CF93CDB7DEB7A9E5B0E0E9E5F0E07B
:102CB00080818F7E8C93CF91DF910895DF93CF93A6
:102CC000CDB7DEB7A9E5B0E0E9E5F0E08081886046
:102CD0008C93CF91DF910895DF93CF93CDB7DEB77B
:102CE000A9E5B0E0E9E5F0E08081877F8C93CF91A2
:102CF000DF910895DF93CF93CDB7DEB7A9E5B0E0BC
:102D0000E9E5F0E0808180628C93CF91DF910895B6
:102D1000DF93CF93CDB7DEB7A9E5B0E0E9E5F0E00A
:102D200080818F7D8C93CF91DF910895DF93CF9336
:102D300000D0CDB7DEB79A83898389819A81909339
:102D4000C7018093C6010F900F90CF91DF91089536
:102D5000DF93CF9300D0CDB7DEB79A838983898183
:102D60009A819093C9018093C8010F900F90CF91E1
:102D7000DF910895DF93CF9300D0CDB7DEB79A836C
:102D8000898389819A819093C3018093C2010F90B6
:102D90000F90CF91DF910895DF93CF9300D0CDB7FF
:102DA000DEB79A83898389819A819093C501809344
:102DB000C4010F900F90CF91DF910895DF93CF93CF
:102DC00000D0CDB7DEB79A838983ECE4F0E0898147
:102DD0008083EDE4F0E089819A81892F99278083AF
:102DE0000F900F90CF91DF910895DF93CF9300D094
:102DF000CDB7DEB79A838983EAE4F0E089818083E6
:102E0000EBE4F0E089819A81892F992780830F90E4
:102E10000F90CF91DF910895DF93CF9300D0CDB77E
:102E2000DEB79A838983E8E4F0E089818083E9E46E
:102E3000F0E089819A81892F992780830F900F90E4
:102E4000CF91DF910895DF93CF9300D0CDB7DEB758
:102E50009A838983E6E4F0E089819A819183808373
:102E60000F900F90CF91DF910895DF93CF9300D013
:102E7000CDB7DEB7EDE4F0E08081882F90E09A8353
:102E8000898389819A81982F88279A838983ECE4A2
:102E9000F0E08081282F30E089819A81822B932B6A
:102EA0009A83898389819A810F900F90CF91DF91C6
:102EB00008951F920F920FB60F9211242F933F93F4
:102EC0004F935F936F937F938F939F93AF93BF9332
:102ED000EF93FF93DF93CF93CDB7DEB7E091C601B9
:102EE000F091C7010995CF91DF91FF91EF91BF91CB
:102EF000AF919F918F917F916F915F914F913F9192
:102F00002F910F900FBE0F901F9018951F920F9248
:102F10000FB60F9211242F933F934F935F936F93AC
:102F20007F938F939F93AF93BF93EF93FF93DF9321
:102F3000CF93CDB7DEB7E091C801F091C9010995F3
:102F4000CF91DF91FF91EF91BF91AF919F918F91C1
:102F50007F916F915F914F913F912F910F900FBE95
:102F60000F901F9018951F920F920FB60F92112479
:102F70002F933F934F935F936F937F938F939F9381
:102F8000AF93BF93EF93FF93DF93CF93CDB7DEB7AC
:102F9000E091C201F091C3010995CF91DF91FF91BA
:102FA000EF91BF91AF919F918F917F916F915F91C1
:102FB0004F913F912F910F900FBE0F901F9018953A
:102FC0001F920F920FB60F9211242F933F934F939E
:102FD0005F936F937F938F939F93AF93BF93EF9381
:102FE000FF93DF93CF93CDB7DEB7E091C401F091AB
:102FF000C5010995CF91DF91FF91EF91BF91AF91FD
:103000009F918F917F916F915F914F913F912F9100
:103010000F900FBE0F901F901895DF93CF93CDB7F1
:10302000DEB7E6E4F0E080819181CF91DF910895F1
:10303000DF93CF93CDB7DEB7AEE4B0E0EEE4F0E0DF
:10304000808180648C93CF91DF910895DF93CF933B
:10305000CDB7DEB7AEE4B0E0EEE4F0E080818F7B88
:103060008C93CF91DF910895DF93CF93CDB7DEB7E7
:10307000A3E5B0E0E3E5F0E080818F7B8C93A3E5EE
:10308000B0E0E3E5F0E0808188608C93A3E5B0E0F8
:10309000E3E5F0E080818F7E8C93A3E5B0E0E3E58B
:1030A000F0E080818F7D8C93CF91DF910895DF9345
:1030B000CF930F92CDB7DEB78983A3E5B0E0E3E508
:1030C000F0E08081887F8C93A3E5B0E0E3E5F0E059
:1030D00090818981892B8C930F90CF91DF910895F6
:1030E000DF93CF93CDB7DEB7A3E5B0E0E3E5F0E043
:1030F0008081887F8C93CF91DF910895DF93CF9368
:10310000CDB7DEB7A9E5B0E0E9E5F0E08081816008
:103110008C93CF91DF910895DF93CF93CDB7DEB736
:10312000A9E5B0E0E9E5F0E080818E7F8C93CF9156
:10313000DF910895DF93CF93CDB7DEB7A9E5B0E077
:10314000E9E5F0E0808182608C93CF91DF91089572
:10315000DF93CF93CDB7DEB7A9E5B0E0E9E5F0E0C6
:1031600080818D7F8C93CF91DF910895DF93CF93F2
:103170000F92CDB7DEB78983E2E5F0E089818083E5
:103180000F90CF91DF910895DF93CF930F92CDB73A
:10319000DEB78983ECE5F0E0898180830F90CF91E1
:1031A000DF910895DF93CF93CDB7DEB7E2E5F0E08E
:1031B0008081CF91DF910895DF93CF9300D0CDB779
:1031C000DEB79A83898389819A819093B70180932E
:1031D000B6010F900F90CF91DF910895DF93CF93B9
:1031E00000D0CDB7DEB79A83898389819A81909385
:1031F000B9018093B8010F900F90CF91DF9108959E
:103200001F920F920FB60F9211242F933F934F935B
:103210005F936F937F938F939F93AF93BF93EF933E
:10322000FF93DF93CF93CDB7DEB78091B601909136
:10323000B701009729F0E091B601F091B701099527
:10324000CF91DF91FF91EF91BF91AF919F918F91BE
:103250007F916F915F914F913F912F910F900FBE92
:103260000F901F9018951F920F920FB60F92112476
:103270002F933F934F935F936F937F938F939F937E
:10328000AF93BF93EF93FF93DF93CF93CDB7DEB7A9
:103290008091B8019091B901009729F0E091B801AF
:1032A000F091B9010995CF91DF91FF91EF91BF9115
:1032B000AF919F918F917F916F915F914F913F91CE
:1032C0002F910F900FBE0F901F901895DF93CF9303
:1032D0000F92CDB7DEB71982AAE2B0E0EAE2F0E0E1
:1032E000808180688C93AAE2B0E0EAE2F0E080811D
:1032F00080628C93AAE2B0E0EAE2F0E080818B7F0A
:103300008C9389818068898389818260898389819E
:103310008460898389818F7B898389818F7E89837A
:1033200089818F7D89838981877F8983E0E4F0E0CB
:1033300089818083E9E2F0E083E38083AAE2B0E060
:10334000EAE2F0E0808180618C93AAE2B0E0EAE2F8
:10335000F0E0808188608C930F90CF91DF91089589
:10336000DF93CF930F92CDB7DEB78983ECE2F0E025
:10337000898180830F90CF91DF910895DF93CF9360
:10338000CDB7DEB7ECE2F0E08081CF91DF91089518
:103390001F920F920FB60F9211242F933F934F93CA
:1033A0005F936F937F938F939F93AF93BF93EF93AD
:1033B000FF93DF93CF93CDB7DEB7E091BD01F091DE
:1033C000BE010995CF91DF91FF91EF91BF91AF9130
:1033D0009F918F917F916F915F914F913F912F912D
:1033E0000F900FBE0F901F9018951F920F920FB65F
:1033F0000F9211242F933F934F935F936F937F937B
:103400008F939F93AF93BF93EF93FF93DF93CF93EC
:10341000CDB7DEB7E091BB01F091BC010995CF912A
:10342000DF91FF91EF91BF91AF919F918F917F912C
:103430006F915F914F913F912F910F900FBE0F9021
:103440001F9018951F920F920FB60F921124DF93C1
:10345000CF93CDB7DEB7CF91DF910F900FBE0F9016
:103460001F901895DF93CF9300D0CDB7DEB79A8326
:10347000898389819A819093BC018093BB010F90CD
:103480000F90CF91DF910895DF93CF9300D0CDB708
:10349000DEB79A83898389819A819093BE01809354
:1034A000BD010F900F90CF91DF910895DF93CF93DF
:1034B000CDB7DEB7AAE2B0E0EAE2F0E080818F7D2E
:1034C0008C93CF91DF910895DF93CF93CDB7DEB783
:1034D000AAE2B0E0EAE2F0E0808180628C93CF91D2
:1034E000DF9108950F931F93DF93CF93CDB7DEB78E
:1034F000C15DD0400FB6F894DEBF0FBECDBF81E0F6
:103500008093C0018AE08093C1019091C0018DEF4A
:10351000692F0E9481099091C10181EF692F0E945A
:103520008109FE01E853FF4F10820E9445060E9468
:1035300066190E94540C0E944F0D86E00E947C1078
:103540000E94671580E29EE40E94231782E00E9499
:10355000FD150E94BD0A0E94380C80E00E94A40B59
:1035600081E099E20E94E70A0E9466190E94A61370
:1035700084E062E041E00E94AB089E0127533F4F88
:1035800080E0B9010E945F09FE01E753FF4F80818F
:10359000813009F4CCC080E690E00E94C21180E046
:1035A00062E00E9421128CE690E00E94C211FE01AE
:1035B000EF53FF4F80E090E0AAE7B4E4808391836B
:1035C000A283B3838E0103541F4FFE01EF53FF4FBD
:1035D000608171818281938120E030E04AEF54E480
:1035E0000E941F02DC01CB01F80180839183A2833A
:1035F000B383FE01E354FF4F608171818281938127
:1036000020E030E040E85FE30E947903882344F43F
:10361000FE01E554FF4F81E090E09183808364C018
:10362000FE01E354FF4F608171818281938120E02C
:103630003FEF4FE757E40E94190318160CF043C000
:10364000FE01EF53FF4F608171818281938120E001
:1036500030E040E251E40E941F02DC01CB018E0108
:1036600005541F4FBC01CD010E944900DC01CB0174
:10367000F801918380831FC0FE01E754FF4F88EC5F
:1036800090E091838083FE01E754FF4F8081918118
:103690000197F1F7FE01E754FF4F91838083DE012C
:1036A000A554BF4FFE01E554FF4F808191810197E2
:1036B00011969C938E93FE01E554FF4F808191817A
:1036C0000097D1F627C08E0105541F4FFE01E35429
:1036D000FF4F60817181828193810E944900DC01EA
:1036E000CB01F80191838083DE01A954BF4FFE0115
:1036F000E554FF4F808191818D939C93FE01E954A5
:10370000FF4F808191810197F1F7FE01E954FF4F4E
:103710009183808381E00E947C1085E790E00E9485
:10372000C21180E062E00E9421120E94AF25FE01DA
:10373000E653FF4F10829E0126533F4F85EEB9019D
:103740000E945F0981E00E947C10FE01E953FF4F57
:103750001082FE01E953FF4F80818823A9F483E0A2
:1037600061E00E9421128EE790E00E94C21180E089
:1037700062E00E94211289E890E00E94C211FE01DD
:10378000E953FF4F81E08083FE01E853FF4F8FEF45
:103790008083FE01EB53FF4F10820E94780CFE01E4
:1037A000EB53FF4F805380830E94BE19FE01EA5302
:1037B000FF4F8083FE01EA53FF4F8081282F30E0C6
:1037C000C053DF4F39832883C05DD040C053DF4FE3
:1037D00088819981C05DD0408133910561F0C053EB
:1037E000DF4FE881F981C05DD040E233F10511F48B
:1037F0000C94A625AECFFE01E953FF4F108281E065
:103800000E947C1089E990E00E94C2110E945A2710
:10381000FE01E553FF4F10829E0125533F4F8DEE71
:10382000B9010E945F09FE01E653FF4F9081FE013E
:10383000E553FF4F8081981709F0DCC581E00E94B5
:103840007C108AEA90E00E94C211FE01ED54FF4F05
:1038500080E090E0AAEFB3E480839183A283B383F6
:103860008E0101551F4FFE01ED54FF4F60817181A4
:103870008281938120E030E04AEF54E40E941F02ED
:10388000DC01CB01F80180839183A283B383FE0125
:10389000E155FF4F608171818281938120E030E0AA
:1038A00040E85FE30E947903882344F4FE01E35576
:1038B000FF4F81E090E09183808364C0FE01E15579
:1038C000FF4F608171818281938120E03FEF4FE75C
:1038D00057E40E94190318160CF043C0FE01ED5482
:1038E000FF4F608171818281938120E030E040E26E
:1038F00051E40E941F02DC01CB018E0103551F4FD2
:10390000BC01CD010E944900DC01CB01F80191838B
:1039100080831FC0FE01E555FF4F88EC90E0918346
:103920008083FE01E555FF4F808191810197F1F77A
:10393000FE01E555FF4F91838083DE01A355BF4F04
:10394000FE01E355FF4F80819181019711969C9371
:103950008E93FE01E355FF4F808191810097D1F650
:1039600041C58E0103551F4FFE01E155FF4F608198
:103970007181828193810E944900DC01CB01F801B1
:1039800091838083DE01A755BF4FFE01E355FF4FB2
:103990008081918111969C938E93FE01E755FF4F94
:1039A000808191810197F1F7FE01E755FF4F9183E7
:1039B000808318C581E00E947C10FE01EB55FF4F0B
:1039C00080E090E0AAE7B4E480839183A283B3838C
:1039D0008E010F551F4FFE01EB55FF4F6081718126
:1039E0008281938120E030E04AEF54E40E941F027C
:1039F000DC01CB01F80180839183A283B383FE01B4
:103A0000EF55FF4F608171818281938120E030E02A
:103A100040E85FE30E947903882344F4FE01E15605
:103A2000FF4F81E090E09183808364C0FE01EF55F9
:103A3000FF4F608171818281938120E03FEF4FE7EA
:103A400057E40E94190318160CF043C0FE01EB5511
:103A5000FF4F608171818281938120E030E040E2FC
:103A600051E40E941F02DC01CB018E0101561F4F61
:103A7000BC01CD010E944900DC01CB01F80191831A
:103A800080831FC0FE01E356FF4F88EC90E09183D6
:103A90008083FE01E356FF4F808191810197F1F70A
:103AA000FE01E356FF4F91838083DE01A156BF4F95
:103AB000FE01E156FF4F80819181019711969C9301
:103AC0008E93FE01E156FF4F808191810097D1F6E0
:103AD00027C08E0101561F4FFE01EF55FF4F608139
:103AE0007181828193810E944900DC01CB01F80140
:103AF00091838083DE01A556BF4FFE01E156FF4F43
:103B0000808191818D939C93FE01E556FF4F8081CA
:103B100091810197F1F7FE01E556FF4F9183808374
:103B200080E061E00E9421128BEB90E00E94C211C4
:103B300080E062E00E94211287EC90E00E94C211B6
:103B4000FE01E853FF4F8FEF808306C00E94780C80
:103B5000FE01E853FF4F8083FE01E853FF4F808151
:103B60008F3FA1F381E00E947C10FE01E853FF4FDC
:103B70008081282F30E0C253DF4F39832883CE5C09
:103B8000D040C253DF4F88819981CE5CD0408133D1
:103B9000910559F0C253DF4FE881F981CE5CD040E6
:103BA000E233F10509F42CC319C480E061E00E94FE
:103BB000211287ED90E00E94C21180E062E00E9435
:103BC000211288EE90E00E94C211FE01E853FF4FDF
:103BD0008FEF808306C00E94780CFE01E853FF4FF0
:103BE0008083FE01E853FF4F80818F3FA1F3FE01E8
:103BF000E853FF4F8081813309F081C18091C0017A
:103C00008F5F8093C0019091C0018DEF692F0E945A
:103C1000810981E00E947C100E941206FE01E95693
:103C2000FF4F80E090E0AAE7B4E480839183A28311
:103C3000B3838E010D561F4FFE01E956FF4F608181
:103C400071818281938120E030E04AEF54E40E9448
:103C50001F02DC01CB01F80180839183A283B3832F
:103C6000FE01ED56FF4F608171818281938120E0DA
:103C700030E040E85FE30E947903882344F4FE01CA
:103C8000EF56FF4F81E090E09183808364C0FE0196
:103C9000ED56FF4F608171818281938120E03FEF7B
:103CA0004FE757E40E94190318160CF043C0FE01B9
:103CB000E956FF4F608171818281938120E030E07D
:103CC00040E251E40E941F02DC01CB018E010F563D
:103CD0001F4FBC01CD010E944900DC01CB01F8015E
:103CE000918380831FC0FE01E157FF4F88EC90E075
:103CF00091838083FE01E157FF4F8081918101977D
:103D0000F1F7FE01E157FF4F91838083DE01AF564B
:103D1000BF4FFE01EF56FF4F8081918101971196B1
:103D20009C938E93FE01EF56FF4F80819181009707
:103D3000D1F627C08E010F561F4FFE01ED56FF4FE3
:103D400060817181828193810E944900DC01CB01F5
:103D5000F80191838083DE01A357BF4FFE01EF5628
:103D6000FF4F808191818D939C93FE01E357FF4F1C
:103D7000808191810197F1F7FE01E357FF4F918315
:103D8000808380E061E00E94211287EF90E00E9432
:103D9000C211FE01E757FF4F80E090E0AAEFB3E4C5
:103DA00080839183A283B3838E010B571F4FFE0143
:103DB000E757FF4F608171818281938120E030E07D
:103DC0004AEF54E40E941F02DC01CB01F80180831A
:103DD0009183A283B383FE01EB57FF4F6081718112
:103DE0008281938120E030E040E85FE30E94790324
:103DF000882344F4FE01ED57FF4F81E090E091836A
:103E0000808364C0FE01EB57FF4F60817181828126
:103E1000938120E03FEF4FE757E40E941903181603
:103E20000CF043C0FE01E757FF4F60817181828132
:103E3000938120E030E040E251E40E941F02DC0167
:103E4000CB018E010D571F4FBC01CD010E944900CF
:103E5000DC01CB01F801918380831FC0FE01EF5785
:103E6000FF4F88EC90E091838083FE01EF57FF4F76
:103E7000808191810197F1F7FE01EF57FF4F918308
:103E80008083DE01AD57BF4FFE01ED57FF4F8081AC
:103E90009181019711969C938E93FE01ED57FF4FF0
:103EA000808191810097D1F627C08E010D571F4F59
:103EB000FE01EB57FF4F60817181828193810E94E7
:103EC0004900DC01CB01F80191838083DE01A15818
:103ED000BF4FFE01ED57FF4F808191818D939C93E1
:103EE000FE01E158FF4F808191810197F1F7FE01BA
:103EF000E158FF4F918380830E94340673C281E0B2
:103F00000E947C108091C1018F5F8093C1019091CC
:103F1000C10181EF692F0E9481090E941206FE01F2
:103F2000E558FF4F80E090E0AAE7B4E480839183F6
:103F3000A283B3838E0109581F4FFE01E558FF4F3E
:103F4000608171818281938120E030E04AEF54E406
:103F50000E941F02DC01CB01F80180839183A283C0
:103F6000B383FE01E958FF4F6081718182819381A3
:103F700020E030E040E85FE30E947903882344F4C6
:103F8000FE01EB58FF4F81E090E09183808364C095
:103F9000FE01E958FF4F608171818281938120E0A9
:103FA0003FEF4FE757E40E94190318160CF043C087
:103FB000FE01E558FF4F608171818281938120E08D
:103FC00030E040E251E40E941F02DC01CB018E018F
:103FD0000B581F4FBC01CD010E944900DC01CB01F1
:103FE000F801918380831FC0FE01ED58FF4F88ECDC
:103FF00090E091838083FE01ED58FF4F8081918195
:104000000197F1F7FE01ED58FF4F91838083DE01A8
:10401000AB58BF4FFE01EB58FF4F80819181019754
:1040200011969C938E93FE01EB58FF4F80819181F6
:104030000097D1F627C08E010B581F4FFE01E9589B
:10404000FF4F60817181828193810E944900DC0170
:10405000CB01F80191838083DE01AF58BF4FFE0191
:10406000EB58FF4F808191818D939C93FE01EF5817
:10407000FF4F808191810197F1F7FE01EF58FF4FCB
:104080009183808380E061E00E94211287EF90E0BD
:104090000E94C211FE01E359FF4F80E090E0A6E9C3
:1040A000B3E480839183A283B3838E0107591F4FAA
:1040B000FE01E359FF4F608171818281938120E08D
:1040C00030E04AEF54E40E941F02DC01CB01F8010A
:1040D00080839183A283B383FE01E759FF4F608100
:1040E00071818281938120E030E040E85FE30E94AB
:1040F0007903882344F4FE01E959FF4F81E090E001
:104100009183808364C0FE01E759FF4F6081718114
:104110008281938120E03FEF4FE757E40E9419032B
:1041200018160CF043C0FE01E359FF4F6081718106
:104130008281938120E030E040E251E40E941F023E
:10414000DC01CB018E0109591F4FBC01CD010E943A
:104150004900DC01CB01F801918380831FC0FE017F
:10416000EB59FF4F88EC90E091838083FE01EB597F
:10417000FF4F808191810197F1F7FE01EB59FF4FCD
:1041800091838083DE01A959BF4FFE01E959FF4F9A
:1041900080819181019711969C938E93FE01E9593C
:1041A000FF4F808191810097D1F627C08E01095978
:1041B0001F4FFE01E759FF4F60817181828193811A
:1041C0000E944900DC01CB01F80191838083DE016C
:1041D000AD59BF4FFE01E959FF4F808191818D9309
:1041E0009C93FE01ED59FF4F808191810197F1F77A
:1041F000FE01ED59FF4F918380830E943406F2C087
:10420000FE01E953FF4F108281E00E947C1080E0A4
:1042100061E00E94211285E091E00E94C211FE013E
:10422000E453FF4F1082FE01E353FF4F10829E01C3
:1042300024533F4F8DEFB9010E945F099E01235324
:104240003F4F81EFB9010E945F09FE01E453FF4F28
:1042500080810E945E1380E062E00E9421128EE065
:1042600091E00E94C211FE01E353FF4F80810E9442
:104270005E13FE01E15AFF4F80E090E0AAEFB4E444
:1042800080839183A283B3838E01055A1F4FFE0161
:10429000E15AFF4F608171818281938120E030E09B
:1042A0004AEF54E40E941F02DC01CB01F801808335
:1042B0009183A283B383FE01E55AFF4F6081718130
:1042C0008281938120E030E040E85FE30E9479033F
:1042D000882344F4FE01E75AFF4F81E090E0918388
:1042E000808364C0FE01E55AFF4F60817181828145
:1042F000938120E03FEF4FE757E40E94190318161F
:104300000CF043C0FE01E15AFF4F60817181828150
:10431000938120E030E040E251E40E941F02DC0182
:10432000CB018E01075A1F4FBC01CD010E944900ED
:10433000DC01CB01F801918380831FC0FE01E95AA3
:10434000FF4F88EC90E091838083FE01E95AFF4F94
:10435000808191810197F1F7FE01E95AFF4F918326
:104360008083DE01A75ABF4FFE01E75AFF4F8081CD
:104370009181019711969C938E93FE01E75AFF4F0E
:10438000808191810097D1F62DC08E01075A1F4F71
:10439000FE01E55AFF4F60817181828193810E9405
:1043A0004900DC01CB01F80191838083DE01AB5A27
:1043B000BF4FFE01E75AFF4F8081918111969C9378
:1043C0008E93FE01EB5AFF4F808191810197F1F7A7
:1043D000FE01EB5AFF4F9183808304C0FE01E95335
:1043E000FF4F1082FE01E853FF4F8081833309F0B5
:1043F000E1CAAFC984E066E041E00E945C0689E161
:1044000091E00E94C21180E062E00E94211283E2EA
:1044100091E00E94C211FE01EF5AFF4F80E090E050
:10442000AAE7B4E480839183A283B3838E01035B04
:104430001F4FFE01EF5AFF4F60817181828193818E
:1044400020E030E04AEF54E40E941F02DC01CB017F
:10445000F80180839183A283B383FE01E35BFF4F66
:10446000608171818281938120E030E040E85FE3E8
:104470000E947903882344F4FE01E55BFF4F81E04D
:1044800090E09183808364C0FE01E35BFF4F608115
:1044900071818281938120E03FEF4FE757E40E94D2
:1044A000190318160CF043C0FE01EF5AFF4F60814C
:1044B00071818281938120E030E040E251E40E94EA
:1044C0001F02DC01CB018E01055B1F4FBC01CD013A
:1044D0000E944900DC01CB01F801918380831FC059
:1044E000FE01E75BFF4F88EC90E091838083FE0143
:1044F000E75BFF4F808191810197F1F7FE01E75B58
:10450000FF4F91838083DE01A55BBF4FFE01E55B1A
:10451000FF4F80819181019711969C938E93FE01AC
:10452000E55BFF4F808191810097D1F627C08E0116
:10453000055B1F4FFE01E35BFF4F6081718182814C
:1045400093810E944900DC01CB01F80191838083B3
:10455000DE01A95BBF4FFE01E55BFF4F80819181CA
:104560008D939C93FE01E95BFF4F808191810197C0
:10457000F1F7FE01E95BFF4F9183808384E066E001
:1045800040E00E945C0681E00E947C10E2C881E06D
:104590000E947C10FE01ED5BFF4F80E090E0AAEFEF
:1045A000B3E480839183A283B3838E01015C1F4FA8
:1045B000FE01ED5BFF4F608171818281938120E07C
:1045C00030E04AEF54E40E941F02DC01CB01F80105
:1045D00080839183A283B383FE01FF966081718102
:1045E0008281938120E030E040E85FE30E9479031C
:1045F00088232CF481E090E09EAF8DAF46C0FE0191
:10460000FF96608171818281938120E03FEF4FE7C7
:1046100057E40E941903181664F5FE01ED5BFF4F85
:10462000608171818281938120E030E040E251E439
:104630000E941F02DC01CB01BC01CD010E94490098
:10464000DC01CB019EAF8DAF0FC088EC90E09CAF3A
:104650008BAF8BAD9CAD0197F1F79CAF8BAF8DAD60
:104660009EAD01979EAF8DAF8DAD9EAD009769F762
:1046700016C0FE01FF9660817181828193810E9444
:104680004900DC01CB019EAF8DAF8DAD9EAD9AAFE1
:1046900089AF89AD9AAD0197F1F79AAF89AF80E004
:1046A00061E00E9421128CE291E00E94C21180E040
:1046B00062E00E94211284E391E00E94C211FE0197
:1046C000E853FF4F8FEF808306C00E94780CFE01F5
:1046D000E853FF4F8083FE01E853FF4F80818F3FF7
:1046E000A1F3FE01E853FF4F8081813309F019C126
:1046F00081E00E947C108091C001882309F084C071
:1047000084E063E041E00E945C0684E491E00E9462
:10471000C21180E090E0AFE2B4E48DAB9EABAFABF2
:10472000B8AF6DA97EA98FA998AD20E030E04AEF1F
:1047300054E40E941F02DC01CB0189AB9AABABAB06
:10474000BCAB69A97AA98BA99CA920E030E040E81C
:104750005FE30E94790388232CF481E090E098AB1A
:104760008FA73FC069A97AA98BA99CA920E03FEF38
:104770004FE757E40E94190318164CF56DA97EA95E
:104780008FA998AD20E030E040E251E40E941F0282
:10479000DC01CB01BC01CD010E944900DC01CB0151
:1047A00098AB8FA70FC088EC90E09EA78DA78DA532
:1047B0009EA50197F1F79EA78DA78FA598A90197B0
:1047C00098AB8FA78FA598A9009769F714C069A91E
:1047D0007AA98BA99CA90E944900DC01CB0198AB66
:1047E0008FA78FA598A99CA78BA78BA59CA50197A0
:1047F000F1F79CA78BA784E063E040E00E945C0691
:1048000081E00E947C10A2C18091C0018150809300
:10481000C0019091C0018DEF692F0E94810981E054
:104820000E947C1080E061E00E94211283E591E00B
:104830000E94C21184E062E00E94EB0780E090E8F1
:10484000A9E0B4E48FA398A7A9A7BAA76FA178A5F8
:1048500089A59AA520E030E04AEF54E40E941F02A7
:10486000DC01CB018BA39CA3ADA3BEA36BA17CA158
:104870008DA19EA120E030E040E85FE30E94790333
:1048800088232CF481E090E09AA389A33FC06BA118
:104890007CA18DA19EA120E03FEF4FE757E40E944D
:1048A000190318164CF56FA178A589A59AA520E0E3
:1048B00030E040E251E40E941F02DC01CB01BC0168
:1048C000CD010E944900DC01CB019AA389A30FC04E
:1048D00088EC90E098A38F8F8F8D98A10197F1F7C6
:1048E00098A38F8F89A19AA101979AA389A389A1DF
:1048F0009AA1009769F72AC16BA17CA18DA19EA105
:104900000E944900DC01CB019AA389A389A19AA145
:104910009E8F8D8F8D8D9E8D0197F1F79E8F8D8F40
:1049200015C18091C101882309F084C084E063E04F
:1049300041E00E945C0684E491E00E94C21180E0A4
:1049400090E0AFE2B4E4898F9A8FAB8FBC8F698D12
:104950007A8D8B8D9C8D20E030E04AEF54E40E94EC
:104960001F02DC01CB018D8B9E8BAF8BB88F6D89C5
:104970007E898F89988D20E030E040E85FE30E94D7
:10498000790388232CF481E090E09C8B8B8B3FC0D3
:104990006D897E898F89988D20E03FEF4FE757E43E
:1049A0000E94190318164CF5698D7A8D8B8D9C8D9C
:1049B00020E030E040E251E40E941F02DC01CB0124
:1049C000BC01CD010E944900DC01CB019C8B8B8B8B
:1049D0000FC088EC90E09A8B898B89899A8901971E
:1049E000F1F79A8B898B8B899C8901979C8B8B8B98
:1049F0008B899C89009769F714C06D897E898F899E
:104A0000988D0E944900DC01CB019C8B8B8B8B899C
:104A10009C89988B8F878F8598890197F1F7988B60
:104A20008F8784E063E040E00E945C0681E00E94A2
:104A30007C108CC08091C10181508093C101909104
:104A4000C10181EF692F0E94810981E00E947C10E1
:104A500080E061E00E94211283E591E00E94C21192
:104A600084E062E00E94EB0780E090E8A9E0B4E413
:104A70008B879C87AD87BE876B857C858D859E8562
:104A800020E030E04AEF54E40E941F02DC01CB0139
:104A90008F839887A987BA876F81788589859A855A
:104AA00020E030E040E85FE30E94790388232CF4A3
:104AB00081E090E09E838D833FC06F8178858985FA
:104AC0009A8520E03FEF4FE757E40E94190318163C
:104AD0004CF56B857C858D859E8520E030E040E23D
:104AE00051E40E941F02DC01CB01BC01CD010E94F8
:104AF0004900DC01CB019E838D830FC088EC90E0E0
:104B00009C838B838B819C810197F1F79C838B83A2
:104B10008D819E8101979E838D838D819E810097DB
:104B200069F714C06F81788589859A850E9449004C
:104B3000DC01CB019E838D838D819E819A83898345
:104B400089819A810197F1F79A838983FE01E8535D
:104B5000FF4F8081833309F01ACD0C94A91BDF939A
:104B6000CF93CDB7DEB7AD970FB6F894DEBF0FBECB
:104B7000CDBF1DA61CA61BA60CC18FEF8BA703C023
:104B80000E94780C8BA78BA58F3FD1F38CA5882F23
:104B900090E09C01220F331FC901880F991F880FD5
:104BA000991F820F931F982F8BA5890F80538CA775
:104BB0008BA50E941F1180E090E0A8E4B3E48FA3CE
:104BC00098A7A9A7BAA76FA178A589A59AA520E05B
:104BD00030E04AEF54E40E941F02DC01CB018BA3BA
:104BE0009CA3ADA3BEA36BA17CA18DA19EA120E03F
:104BF00030E040E85FE30E94790388232CF481E0F1
:104C000090E09AA389A33FC06BA17CA18DA19EA136
:104C100020E03FEF4FE757E40E94190318164CF5C8
:104C20006FA178A589A59AA520E030E040E251E483
:104C30000E941F02DC01CB01BC01CD010E94490092
:104C4000DC01CB019AA389A30FC088EC90E098A364
:104C50008F8F8F8D98A10197F1F798A38F8F89A1DE
:104C60009AA101979AA389A389A19AA1009769F7AC
:104C700014C06BA17CA18DA19EA10E944900DC0102
:104C8000CB019AA389A389A19AA19E8F8D8F8D8D27
:104C90009E8D0197F1F79E8F8D8F8DA562E00E940A
:104CA00021128AE20E941F1180E090E0A8ECB2E499
:104CB000898F9A8FAB8FBC8F698D7A8D8B8D9C8DF0
:104CC00020E030E04AEF54E40E941F02DC01CB01F7
:104CD0008D8B9E8BAF8BB88F6D897E898F89988DD8
:104CE00020E030E040E85FE30E94790388232CF461
:104CF00081E090E09C8B8B8B3FC06D897E898F8992
:104D0000988D20E03FEF4FE757E40E9419031816F3
:104D10004CF5698D7A8D8B8D9C8D20E030E040E2E2
:104D200051E40E941F02DC01CB01BC01CD010E94B5
:104D30004900DC01CB019C8B8B8B0FC088EC90E091
:104D40009A8B898B89899A890197F1F79A8B898B3C
:104D50008B899C8901979C8B8B8B8B899C89009775
:104D600069F714C06D897E898F89988D0E944900EA
:104D7000DC01CB019C8B8B8B8B899C89988B8F87DB
:104D80008F8598890197F1F7988B8F878DA58F5F15
:104D90008DA78DA5843008F4F0CE81E00E947C10B0
:104DA00085EE6CA50E94810980E061E00E94810986
:104DB00085E691E00E94C21180E090E0AAE7B4E4A9
:104DC0008B879C87AD87BE876B857C858D859E850F
:104DD00020E030E04AEF54E40E941F02DC01CB01E6
:104DE0008F839887A987BA876F81788589859A8507
:104DF00020E030E040E85FE30E94790388232CF450
:104E000081E090E09E838D833FC06F8178858985A6
:104E10009A8520E03FEF4FE757E40E9419031816E8
:104E20004CF56B857C858D859E8520E030E040E2E9
:104E300051E40E941F02DC01CB01BC01CD010E94A4
:104E40004900DC01CB019E838D830FC088EC90E08C
:104E50009C838B838B819C810197F1F79C838B834F
:104E60008D819E8101979E838D838D819E81009788
:104E700069F714C06F81788589859A850E944900F9
:104E8000DC01CB019E838D838D819E819A838983F2
:104E900089819A810197F1F79A83898381E00E9441
:104EA0007C10AD960FB6F894DEBF0FBECDBFCF918C
:104EB000DF910895DF93CF93CDB7DEB7AE970FB6EE
:104EC000F894DEBF0FBECDBF1EA61DA681E08BA746
:104ED0000FC10E94BE198CA78CA5882309F01BA6C0
:104EE0008BA58823B1F78DA5882F90E09C01220F18
:104EF000331FC901880F991F880F991F820F931FB5
:104F0000982F8CA5890F80538DA78CA50E941F1107
:104F100081E08BA780E090E0A8E4B3E48FA398A79A
:104F2000A9A7BAA76FA178A589A59AA520E030E026
:104F30004AEF54E40E941F02DC01CB018BA39CA327
:104F4000ADA3BEA36BA17CA18DA19EA120E030E00A
:104F500040E85FE30E94790388232CF481E090E02D
:104F60009AA389A33FC06BA17CA18DA19EA120E043
:104F70003FEF4FE757E40E94190318164CF56FA155
:104F800078A589A59AA520E030E040E251E40E948E
:104F90001F02DC01CB01BC01CD010E944900DC01F4
:104FA000CB019AA389A30FC088EC90E098A38F8FC0
:104FB0008F8D98A10197F1F798A38F8F89A19AA15E
:104FC00001979AA389A389A19AA1009769F714C0B0
:104FD0006BA17CA18DA19EA10E944900DC01CB01A7
:104FE0009AA389A389A19AA19E8F8D8F8D8D9E8D65
:104FF0000197F1F79E8F8D8F8EA562E00E9421129E
:105000008AE20E941F1180E090E0A8ECB2E4898F50
:105010009A8FAB8FBC8F698D7A8D8B8D9C8D20E0A4
:1050200030E04AEF54E40E941F02DC01CB018D8B7B
:105030009E8BAF8BB88F6D897E898F89988D20E08C
:1050400030E040E85FE30E94790388232CF481E09C
:1050500090E09C8B8B8B3FC06D897E898F89988D6A
:1050600020E03FEF4FE757E40E94190318164CF574
:10507000698D7A8D8B8D9C8D20E030E040E251E48B
:105080000E941F02DC01CB01BC01CD010E9449003E
:10509000DC01CB019C8B8B8B0FC088EC90E09A8B52
:1050A000898B89899A890197F1F79A8B898B8B89EA
:1050B0009C8901979C8B8B8B8B899C89009769F7C6
:1050C00014C06D897E898F89988D0E944900DC010A
:1050D000CB019C8B8B8B8B899C89988B8F878F8541
:1050E00098890197F1F7988B8F878EA58F5F8EA790
:1050F0008EA5843008F4F4CE81E00E947C108DEE01
:105100006DA50E94810980E090E0AAE7B4E48B8756
:105110009C87AD87BE876B857C858D859E8520E0CD
:1051200030E04AEF54E40E941F02DC01CB018F8380
:105130009887A987BA876F81788589859A8520E0C5
:1051400030E040E85FE30E94790388232CF481E09B
:1051500090E09E838D833FC06F81788589859A8595
:1051600020E03FEF4FE757E40E94190318164CF573
:105170006B857C858D859E8520E030E040E251E4A2
:105180000E941F02DC01CB01BC01CD010E9449003D
:10519000DC01CB019E838D830FC088EC90E09C8363
:1051A0008B838B819C810197F1F79C838B838D810D
:1051B0009E8101979E838D838D819E81009769F7E3
:1051C00014C06F81788589859A850E944900DC0129
:1051D000CB019E838D838D819E819A838983898172
:1051E0009A810197F1F79A83898381E00E947C106C
:1051F000AE960FB6F894DEBF0FBECDBFCF91DF9154
:105200000895DF93CF93CDB7DEB76E970FB6F894BE
:10521000DEBF0FBECDBF84E067E041E00E945C06C8
:105220008EEE92E09E8F8D8F80C08D8D9E8D0E9420
:10523000F51680E090E0A0E2B1E4898F9A8FAB8F01
:10524000BC8F698D7A8D8B8D9C8D20E030E04AEF8C
:1052500054E40E941F02DC01CB018D8B9E8BAF8B2F
:10526000B88F6D897E898F89988D20E030E040E885
:105270005FE30E94790388232CF481E090E09C8B0B
:105280008B8B3FC06D897E898F89988D20E03FEFA1
:105290004FE757E40E94190318164CF5698D7A8D73
:1052A0008B8D9C8D20E030E040E251E40E941F0293
:1052B000DC01CB01BC01CD010E944900DC01CB0126
:1052C0009C8B8B8B0FC088EC90E09A8B898B8989A3
:1052D0009A890197F1F79A8B898B8B899C89019721
:1052E0009C8B8B8B8B899C89009769F714C06D8987
:1052F0007E898F89988D0E944900DC01CB019C8BAF
:105300008B8B8B899C89988B8F878F859889019748
:10531000F1F7988B8F878D8D9E8D05969E8F8D8F43
:105320008D8D9E8D01969E8F8D8F8D8D9E8D25E00E
:105330008C3D920708F479CF80E090E0AAEFB3E4C7
:105340008B879C87AD87BE876B857C858D859E8589
:1053500020E030E04AEF54E40E941F02DC01CB0160
:105360008F839887A987BA876F81788589859A8581
:1053700020E030E040E85FE30E94790388232CF4CA
:1053800081E090E09E838D833FC06F817885898521
:105390009A8520E03FEF4FE757E40E941903181663
:1053A0004CF56B857C858D859E8520E030E040E264
:1053B00051E40E941F02DC01CB01BC01CD010E941F
:1053C0004900DC01CB019E838D830FC088EC90E007
:1053D0009C838B838B819C810197F1F79C838B83CA
:1053E0008D819E8101979E838D838D819E81009703
:1053F00069F714C06F81788589859A850E94490074
:10540000DC01CB019E838D838D819E819A8389836C
:1054100089819A810197F1F79A8389838CED95E0D0
:105420000E94F51684E067E040E00E945C066E96FC
:105430000FB6F894DEBF0FBECDBFCF91DF910895B8
:10544000DF93CF93CDB7DEB76E970FB6F894DEBF7C
:105450000FBECDBF1E8E1D8EEDC080E090E8A9E08E
:10546000B4E4898F9A8FAB8FBC8F698D7A8D8B8DC9
:105470009C8D20E030E04AEF54E40E941F02DC01E2
:10548000CB018D8B9E8BAF8BB88F6D897E898F8979
:10549000988D20E030E040E85FE30E9479038823A4
:1054A0002CF481E090E09C8B8B8B3FC06D897E89D2
:1054B0008F89988D20E03FEF4FE757E40E94190352
:1054C00018164CF5698D7A8D8B8D9C8D20E030E01F
:1054D00040E251E40E941F02DC01CB01BC01CD017E
:1054E0000E944900DC01CB019C8B8B8B0FC088ECA8
:1054F00090E09A8B898B89899A890197F1F79A8B29
:10550000898B8B899C8901979C8B8B8B8B899C8940
:10551000009769F714C06D897E898F89988D0E94E4
:105520004900DC01CB019C8B8B8B8B899C89988BF0
:105530008F878F8598890197F1F7988B8F8784E003
:1055400066E00E94EB0780E090E8A9E0B4E48B8776
:105550009C87AD87BE876B857C858D859E8520E089
:1055600030E04AEF54E40E941F02DC01CB018F833C
:105570009887A987BA876F81788589859A8520E081
:1055800030E040E85FE30E94790388232CF481E057
:1055900090E09E838D833FC06F81788589859A8551
:1055A00020E03FEF4FE757E40E94190318164CF52F
:1055B0006B857C858D859E8520E030E040E251E45E
:1055C0000E941F02DC01CB01BC01CD010E944900F9
:1055D000DC01CB019E838D830FC088EC90E09C831F
:1055E0008B838B819C810197F1F79C838B838D81C9
:1055F0009E8101979E838D838D819E81009769F79F
:1056000014C06F81788589859A850E944900DC01E4
:10561000CB019E838D838D819E819A83898389812D
:105620009A810197F1F79A8389838D8D9E8D0196DA
:105630009E8F8D8F8D8D9E8D823091050CF40DCFB8
:105640006E960FB6F894DEBF0FBECDBFCF91DF913F
:10565000089597FB092E07260AD077FD04D00CD0B9
:1056600006D000201AF4709561957F4F0895F6F7E3
:10567000909581959F4F0895AA1BBB1B51E107C0D0
:10568000AA1FBB1FA617B70710F0A61BB70B881FD2
:10569000991F5A95A9F780959095BC01CD01089561
:1056A0002F923F924F925F926F927F928F929F9232
:1056B000AF92BF92CF92DF92EF92FF920F931F9320
:1056C000CF93DF93CDB7DEB7CA1BDB0B0FB6F894D1
:1056D000DEBF0FBECDBF09942A88398848885F8411
:1056E0006E847D848C849B84AA84B984C884DF8082
:1056F000EE80FD800C811B81AA81B981CE0FD11D66
:105700000FB6F894DEBF0FBECDBFED010895FB01CB
:105710009F01E8944230C4F04532B4F44A3029F491
:1057200097FB1EF4909581959F4F642F77270E94D9
:105730003C2B805D8A330CF0895D8193CB0100970F
:10574000A1F716F45DE251931082C9010C94A82BC5
:10575000DC01FC01672F71917723E1F7329704C0D8
:105760007C916D9370836291AE17BF07C8F3089563
:04577000F894FFCFDB
:10577400536574204D616368696E6500506173738D
:10578400776F7264005365742070617373004D61A8
:105794006368696E652D4B4F00313A4F7074696FC1
:1057A4006E7320323A62757900456E7465722050CA
:1057B400617373776F7264203A00436F727265632A
:1057C400742050617373776F726400313A4164647A
:1057D400206974656D7300323A43616E73204E6FB5
:1057E40020333A4F5554006974656D20746F2061FD
:1057F40064642069733A2000313A537069726F20EF
:10580400323A436F6C61004974656D2069732041BD
:105814006464656400537069726F203A20004269C1
:10582400672D436F6C613A2000494E434F525245F5
:1058340043540050415353574F524400313A73700C
:1058440069726F00323A426967436F6C6120333A80
:105854006F7574004E4F5420415641494C41424C9F
:10586400452100454E4A4F5920526566726573685A
:10587400696E67210050617373776F726420697376
:1058840020536176656400000000000000000037CA
:1058940038392F3435362A3132332D41303D2B03FC
:1058A400070202020000000701010F0000000000CF
:1058B400001F0A0E000000000402010E0000000098
:00000001FF
